{
  "contractName": "Supplychain",
  "abi": [
    {
      "inputs": [],
      "name": "productInfo",
      "outputs": [
        {
          "internalType": "string",
          "name": "id",
          "type": "string"
        },
        {
          "internalType": "string",
          "name": "name",
          "type": "string"
        },
        {
          "internalType": "string",
          "name": "price",
          "type": "string"
        },
        {
          "internalType": "string",
          "name": "description",
          "type": "string"
        },
        {
          "internalType": "string",
          "name": "data",
          "type": "string"
        },
        {
          "internalType": "uint256",
          "name": "timestamp",
          "type": "uint256"
        }
      ],
      "stateMutability": "view",
      "type": "function"
    },
    {
      "inputs": [
        {
          "internalType": "uint256",
          "name": "",
          "type": "uint256"
        }
      ],
      "name": "productStatus",
      "outputs": [
        {
          "internalType": "string",
          "name": "location",
          "type": "string"
        },
        {
          "internalType": "uint256",
          "name": "timestamp",
          "type": "uint256"
        },
        {
          "internalType": "string",
          "name": "data",
          "type": "string"
        },
        {
          "internalType": "string",
          "name": "worker_id",
          "type": "string"
        },
        {
          "internalType": "bool",
          "name": "flasg",
          "type": "bool"
        }
      ],
      "stateMutability": "view",
      "type": "function"
    },
    {
      "inputs": [
        {
          "internalType": "string",
          "name": "",
          "type": "string"
        }
      ],
      "name": "product_Status",
      "outputs": [
        {
          "internalType": "string",
          "name": "id",
          "type": "string"
        },
        {
          "internalType": "string",
          "name": "name",
          "type": "string"
        },
        {
          "internalType": "string",
          "name": "price",
          "type": "string"
        },
        {
          "internalType": "string",
          "name": "description",
          "type": "string"
        },
        {
          "internalType": "string",
          "name": "data",
          "type": "string"
        },
        {
          "internalType": "uint256",
          "name": "timestamp",
          "type": "uint256"
        }
      ],
      "stateMutability": "view",
      "type": "function"
    },
    {
      "inputs": [
        {
          "internalType": "string",
          "name": "",
          "type": "string"
        }
      ],
      "name": "products",
      "outputs": [
        {
          "internalType": "string",
          "name": "id",
          "type": "string"
        },
        {
          "internalType": "string",
          "name": "name",
          "type": "string"
        },
        {
          "internalType": "string",
          "name": "price",
          "type": "string"
        },
        {
          "internalType": "string",
          "name": "description",
          "type": "string"
        },
        {
          "internalType": "string",
          "name": "data",
          "type": "string"
        },
        {
          "internalType": "uint256",
          "name": "timestamp",
          "type": "uint256"
        }
      ],
      "stateMutability": "view",
      "type": "function"
    },
    {
      "inputs": [
        {
          "internalType": "uint256",
          "name": "",
          "type": "uint256"
        }
      ],
      "name": "products_list",
      "outputs": [
        {
          "internalType": "string",
          "name": "id",
          "type": "string"
        },
        {
          "internalType": "string",
          "name": "name",
          "type": "string"
        },
        {
          "internalType": "string",
          "name": "price",
          "type": "string"
        },
        {
          "internalType": "string",
          "name": "description",
          "type": "string"
        },
        {
          "internalType": "string",
          "name": "data",
          "type": "string"
        },
        {
          "internalType": "uint256",
          "name": "timestamp",
          "type": "uint256"
        }
      ],
      "stateMutability": "view",
      "type": "function"
    },
    {
      "inputs": [],
      "name": "statusInfo",
      "outputs": [
        {
          "internalType": "string",
          "name": "location",
          "type": "string"
        },
        {
          "internalType": "uint256",
          "name": "timestamp",
          "type": "uint256"
        },
        {
          "internalType": "string",
          "name": "data",
          "type": "string"
        },
        {
          "internalType": "string",
          "name": "worker_id",
          "type": "string"
        },
        {
          "internalType": "bool",
          "name": "flasg",
          "type": "bool"
        }
      ],
      "stateMutability": "view",
      "type": "function"
    },
    {
      "inputs": [],
      "name": "workerInfo",
      "outputs": [
        {
          "internalType": "string",
          "name": "name",
          "type": "string"
        },
        {
          "internalType": "string",
          "name": "id",
          "type": "string"
        },
        {
          "internalType": "uint256",
          "name": "timestamp",
          "type": "uint256"
        }
      ],
      "stateMutability": "view",
      "type": "function"
    },
    {
      "inputs": [
        {
          "internalType": "string",
          "name": "",
          "type": "string"
        }
      ],
      "name": "workers",
      "outputs": [
        {
          "internalType": "string",
          "name": "name",
          "type": "string"
        },
        {
          "internalType": "string",
          "name": "id",
          "type": "string"
        },
        {
          "internalType": "uint256",
          "name": "timestamp",
          "type": "uint256"
        }
      ],
      "stateMutability": "view",
      "type": "function"
    },
    {
      "inputs": [
        {
          "internalType": "uint256",
          "name": "",
          "type": "uint256"
        }
      ],
      "name": "workers_list",
      "outputs": [
        {
          "internalType": "string",
          "name": "name",
          "type": "string"
        },
        {
          "internalType": "string",
          "name": "id",
          "type": "string"
        },
        {
          "internalType": "uint256",
          "name": "timestamp",
          "type": "uint256"
        }
      ],
      "stateMutability": "view",
      "type": "function"
    },
    {
      "inputs": [
        {
          "internalType": "string",
          "name": "name",
          "type": "string"
        },
        {
          "internalType": "string",
          "name": "id",
          "type": "string"
        }
      ],
      "name": "setWorker",
      "outputs": [],
      "stateMutability": "payable",
      "type": "function"
    },
    {
      "inputs": [
        {
          "internalType": "string",
          "name": "id",
          "type": "string"
        },
        {
          "internalType": "string",
          "name": "name",
          "type": "string"
        },
        {
          "internalType": "string",
          "name": "price",
          "type": "string"
        },
        {
          "internalType": "string",
          "name": "description",
          "type": "string"
        },
        {
          "internalType": "string",
          "name": "data",
          "type": "string"
        }
      ],
      "name": "AddProduct",
      "outputs": [],
      "stateMutability": "payable",
      "type": "function"
    }
  ],
  "bytecode": "0x608060405234801561001057600080fd5b50612164806100206000396000f3fe60806040526004361061009c5760003560e01c806355ed1a011161006457806355ed1a01146101bf578063904b3f38146101fe578063b20fca6014610240578063bd7d2c8a1461025c578063dab713c014610278578063f7aed773146102a85761009c565b80630186a423146100a15780630800dee7146100e35780630ea3d3ee14610110578063123a967c1461015157806351d703b414610190575b600080fd5b3480156100ad57600080fd5b506100c860048036038101906100c39190611c6c565b6102ea565b6040516100da96959493929190611d56565b60405180910390f35b3480156100ef57600080fd5b506100f86105e4565b60405161010793929190611dda565b60405180910390f35b34801561011c57600080fd5b5061013760048036038101906101329190611e4b565b61070c565b604051610148959493929190611e93565b60405180910390f35b34801561015d57600080fd5b5061017860048036038101906101739190611c6c565b6108f7565b60405161018793929190611dda565b60405180910390f35b34801561019c57600080fd5b506101a5610a47565b6040516101b6959493929190611e93565b60405180910390f35b3480156101cb57600080fd5b506101e660048036038101906101e19190611e4b565b610c10565b6040516101f593929190611dda565b60405180910390f35b34801561020a57600080fd5b5061022560048036038101906102209190611c6c565b610d5a565b60405161023796959493929190611d56565b60405180910390f35b61025a60048036038101906102559190611efb565b611054565b005b61027660048036038101906102719190612002565b6112ce565b005b34801561028457600080fd5b5061028d61141c565b60405161029f96959493929190611d56565b60405180910390f35b3480156102b457600080fd5b506102cf60048036038101906102ca9190611e4b565b6116ee565b6040516102e196959493929190611d56565b60405180910390f35b601481805160208101820180518482526020830160208501208183528095505050505050600091509050806000018054610323906120a9565b80601f016020809104026020016040519081016040528092919081815260200182805461034f906120a9565b801561039c5780601f106103715761010080835404028352916020019161039c565b820191906000526020600020905b81548152906001019060200180831161037f57829003601f168201915b5050505050908060010180546103b1906120a9565b80601f01602080910402602001604051908101604052809291908181526020018280546103dd906120a9565b801561042a5780601f106103ff5761010080835404028352916020019161042a565b820191906000526020600020905b81548152906001019060200180831161040d57829003601f168201915b50505050509080600201805461043f906120a9565b80601f016020809104026020016040519081016040528092919081815260200182805461046b906120a9565b80156104b85780601f1061048d576101008083540402835291602001916104b8565b820191906000526020600020905b81548152906001019060200180831161049b57829003601f168201915b5050505050908060030180546104cd906120a9565b80601f01602080910402602001604051908101604052809291908181526020018280546104f9906120a9565b80156105465780601f1061051b57610100808354040283529160200191610546565b820191906000526020600020905b81548152906001019060200180831161052957829003601f168201915b50505050509080600401805461055b906120a9565b80601f0160208091040260200160405190810160405280929190818152602001828054610587906120a9565b80156105d45780601f106105a9576101008083540402835291602001916105d4565b820191906000526020600020905b8154815290600101906020018083116105b757829003601f168201915b5050505050908060050154905086565b60108060000180546105f5906120a9565b80601f0160208091040260200160405190810160405280929190818152602001828054610621906120a9565b801561066e5780601f106106435761010080835404028352916020019161066e565b820191906000526020600020905b81548152906001019060200180831161065157829003601f168201915b505050505090806001018054610683906120a9565b80601f01602080910402602001604051908101604052809291908181526020018280546106af906120a9565b80156106fc5780601f106106d1576101008083540402835291602001916106fc565b820191906000526020600020905b8154815290600101906020018083116106df57829003601f168201915b5050505050908060020154905083565b6009818154811061071c57600080fd5b906000526020600020906005020160009150905080600001805461073f906120a9565b80601f016020809104026020016040519081016040528092919081815260200182805461076b906120a9565b80156107b85780601f1061078d576101008083540402835291602001916107b8565b820191906000526020600020905b81548152906001019060200180831161079b57829003601f168201915b5050505050908060010154908060020180546107d3906120a9565b80601f01602080910402602001604051908101604052809291908181526020018280546107ff906120a9565b801561084c5780601f106108215761010080835404028352916020019161084c565b820191906000526020600020905b81548152906001019060200180831161082f57829003601f168201915b505050505090806003018054610861906120a9565b80601f016020809104026020016040519081016040528092919081815260200182805461088d906120a9565b80156108da5780601f106108af576101008083540402835291602001916108da565b820191906000526020600020905b8154815290600101906020018083116108bd57829003601f168201915b5050505050908060040160009054906101000a900460ff16905085565b601581805160208101820180518482526020830160208501208183528095505050505050600091509050806000018054610930906120a9565b80601f016020809104026020016040519081016040528092919081815260200182805461095c906120a9565b80156109a95780601f1061097e576101008083540402835291602001916109a9565b820191906000526020600020905b81548152906001019060200180831161098c57829003601f168201915b5050505050908060010180546109be906120a9565b80601f01602080910402602001604051908101604052809291908181526020018280546109ea906120a9565b8015610a375780601f10610a0c57610100808354040283529160200191610a37565b820191906000526020600020905b815481529060010190602001808311610a1a57829003601f168201915b5050505050908060020154905083565b600a806000018054610a58906120a9565b80601f0160208091040260200160405190810160405280929190818152602001828054610a84906120a9565b8015610ad15780601f10610aa657610100808354040283529160200191610ad1565b820191906000526020600020905b815481529060010190602001808311610ab457829003601f168201915b505050505090806001015490806002018054610aec906120a9565b80601f0160208091040260200160405190810160405280929190818152602001828054610b18906120a9565b8015610b655780601f10610b3a57610100808354040283529160200191610b65565b820191906000526020600020905b815481529060010190602001808311610b4857829003601f168201915b505050505090806003018054610b7a906120a9565b80601f0160208091040260200160405190810160405280929190818152602001828054610ba6906120a9565b8015610bf35780601f10610bc857610100808354040283529160200191610bf3565b820191906000526020600020905b815481529060010190602001808311610bd657829003601f168201915b5050505050908060040160009054906101000a900460ff16905085565b600f8181548110610c2057600080fd5b9060005260206000209060030201600091509050806000018054610c43906120a9565b80601f0160208091040260200160405190810160405280929190818152602001828054610c6f906120a9565b8015610cbc5780601f10610c9157610100808354040283529160200191610cbc565b820191906000526020600020905b815481529060010190602001808311610c9f57829003601f168201915b505050505090806001018054610cd1906120a9565b80601f0160208091040260200160405190810160405280929190818152602001828054610cfd906120a9565b8015610d4a5780601f10610d1f57610100808354040283529160200191610d4a565b820191906000526020600020905b815481529060010190602001808311610d2d57829003601f168201915b5050505050908060020154905083565b601381805160208101820180518482526020830160208501208183528095505050505050600091509050806000018054610d93906120a9565b80601f0160208091040260200160405190810160405280929190818152602001828054610dbf906120a9565b8015610e0c5780601f10610de157610100808354040283529160200191610e0c565b820191906000526020600020905b815481529060010190602001808311610def57829003601f168201915b505050505090806001018054610e21906120a9565b80601f0160208091040260200160405190810160405280929190818152602001828054610e4d906120a9565b8015610e9a5780601f10610e6f57610100808354040283529160200191610e9a565b820191906000526020600020905b815481529060010190602001808311610e7d57829003601f168201915b505050505090806002018054610eaf906120a9565b80601f0160208091040260200160405190810160405280929190818152602001828054610edb906120a9565b8015610f285780601f10610efd57610100808354040283529160200191610f28565b820191906000526020600020905b815481529060010190602001808311610f0b57829003601f168201915b505050505090806003018054610f3d906120a9565b80601f0160208091040260200160405190810160405280929190818152602001828054610f69906120a9565b8015610fb65780601f10610f8b57610100808354040283529160200191610fb6565b820191906000526020600020905b815481529060010190602001808311610f9957829003601f168201915b505050505090806004018054610fcb906120a9565b80601f0160208091040260200160405190810160405280929190818152602001828054610ff7906120a9565b80156110445780601f1061101957610100808354040283529160200191611044565b820191906000526020600020905b81548152906001019060200180831161102757829003601f168201915b5050505050908060050154905086565b6040518060c00160405280868152602001858152602001848152602001838152602001828152602001428152506003600082015181600001908051906020019061109f9291906119e2565b5060208201518160010190805190602001906110bc9291906119e2565b5060408201518160020190805190602001906110d99291906119e2565b5060608201518160030190805190602001906110f69291906119e2565b5060808201518160040190805190602001906111139291906119e2565b5060a0820151816005015590505060036014866040516111339190612117565b90815260200160405180910390206000820181600001908054611155906120a9565b611160929190611a68565b506001820181600101908054611175906120a9565b611180929190611a68565b506002820181600201908054611195906120a9565b6111a0929190611a68565b5060038201816003019080546111b5906120a9565b6111c0929190611a68565b5060048201816004019080546111d5906120a9565b6111e0929190611a68565b5060058201548160050155905050600260039080600181540180825580915050600190039060005260206000209060060201600090919091909150600082018160000190805461122f906120a9565b61123a929190611a68565b50600182018160010190805461124f906120a9565b61125a929190611a68565b50600282018160020190805461126f906120a9565b61127a929190611a68565b50600382018160030190805461128f906120a9565b61129a929190611a68565b5060048201816004019080546112af906120a9565b6112ba929190611a68565b506005820154816005015550505050505050565b604051806060016040528083815260200182815260200142815250601060008201518160000190805190602001906113079291906119e2565b5060208201518160010190805190602001906113249291906119e2565b506040820151816002015590505060106015826040516113449190612117565b90815260200160405180910390206000820181600001908054611366906120a9565b611371929190611a68565b506001820181600101908054611386906120a9565b611391929190611a68565b5060028201548160020155905050600f6010908060018154018082558091505060019003906000526020600020906003020160009091909190915060008201816000019080546113e0906120a9565b6113eb929190611a68565b506001820181600101908054611400906120a9565b61140b929190611a68565b506002820154816002015550505050565b600380600001805461142d906120a9565b80601f0160208091040260200160405190810160405280929190818152602001828054611459906120a9565b80156114a65780601f1061147b576101008083540402835291602001916114a6565b820191906000526020600020905b81548152906001019060200180831161148957829003601f168201915b5050505050908060010180546114bb906120a9565b80601f01602080910402602001604051908101604052809291908181526020018280546114e7906120a9565b80156115345780601f1061150957610100808354040283529160200191611534565b820191906000526020600020905b81548152906001019060200180831161151757829003601f168201915b505050505090806002018054611549906120a9565b80601f0160208091040260200160405190810160405280929190818152602001828054611575906120a9565b80156115c25780601f10611597576101008083540402835291602001916115c2565b820191906000526020600020905b8154815290600101906020018083116115a557829003601f168201915b5050505050908060030180546115d7906120a9565b80601f0160208091040260200160405190810160405280929190818152602001828054611603906120a9565b80156116505780601f1061162557610100808354040283529160200191611650565b820191906000526020600020905b81548152906001019060200180831161163357829003601f168201915b505050505090806004018054611665906120a9565b80601f0160208091040260200160405190810160405280929190818152602001828054611691906120a9565b80156116de5780601f106116b3576101008083540402835291602001916116de565b820191906000526020600020905b8154815290600101906020018083116116c157829003601f168201915b5050505050908060050154905086565b600281815481106116fe57600080fd5b9060005260206000209060060201600091509050806000018054611721906120a9565b80601f016020809104026020016040519081016040528092919081815260200182805461174d906120a9565b801561179a5780601f1061176f5761010080835404028352916020019161179a565b820191906000526020600020905b81548152906001019060200180831161177d57829003601f168201915b5050505050908060010180546117af906120a9565b80601f01602080910402602001604051908101604052809291908181526020018280546117db906120a9565b80156118285780601f106117fd57610100808354040283529160200191611828565b820191906000526020600020905b81548152906001019060200180831161180b57829003601f168201915b50505050509080600201805461183d906120a9565b80601f0160208091040260200160405190810160405280929190818152602001828054611869906120a9565b80156118b65780601f1061188b576101008083540402835291602001916118b6565b820191906000526020600020905b81548152906001019060200180831161189957829003601f168201915b5050505050908060030180546118cb906120a9565b80601f01602080910402602001604051908101604052809291908181526020018280546118f7906120a9565b80156119445780601f1061191957610100808354040283529160200191611944565b820191906000526020600020905b81548152906001019060200180831161192757829003601f168201915b505050505090806004018054611959906120a9565b80601f0160208091040260200160405190810160405280929190818152602001828054611985906120a9565b80156119d25780601f106119a7576101008083540402835291602001916119d2565b820191906000526020600020905b8154815290600101906020018083116119b557829003601f168201915b5050505050908060050154905086565b8280546119ee906120a9565b90600052602060002090601f016020900481019282611a105760008555611a57565b82601f10611a2957805160ff1916838001178555611a57565b82800160010185558215611a57579182015b82811115611a56578251825591602001919060010190611a3b565b5b509050611a649190611af5565b5090565b828054611a74906120a9565b90600052602060002090601f016020900481019282611a965760008555611ae4565b82601f10611aa75780548555611ae4565b82800160010185558215611ae457600052602060002091601f016020900482015b82811115611ae3578254825591600101919060010190611ac8565b5b509050611af19190611af5565b5090565b5b80821115611b0e576000816000905550600101611af6565b5090565b6000604051905090565b600080fd5b600080fd5b600080fd5b600080fd5b6000601f19601f8301169050919050565b7f4e487b7100000000000000000000000000000000000000000000000000000000600052604160045260246000fd5b611b7982611b30565b810181811067ffffffffffffffff82111715611b9857611b97611b41565b5b80604052505050565b6000611bab611b12565b9050611bb78282611b70565b919050565b600067ffffffffffffffff821115611bd757611bd6611b41565b5b611be082611b30565b9050602081019050919050565b82818337600083830152505050565b6000611c0f611c0a84611bbc565b611ba1565b905082815260208101848484011115611c2b57611c2a611b2b565b5b611c36848285611bed565b509392505050565b600082601f830112611c5357611c52611b26565b5b8135611c63848260208601611bfc565b91505092915050565b600060208284031215611c8257611c81611b1c565b5b600082013567ffffffffffffffff811115611ca057611c9f611b21565b5b611cac84828501611c3e565b91505092915050565b600081519050919050565b600082825260208201905092915050565b60005b83811015611cef578082015181840152602081019050611cd4565b83811115611cfe576000848401525b50505050565b6000611d0f82611cb5565b611d198185611cc0565b9350611d29818560208601611cd1565b611d3281611b30565b840191505092915050565b6000819050919050565b611d5081611d3d565b82525050565b600060c0820190508181036000830152611d708189611d04565b90508181036020830152611d848188611d04565b90508181036040830152611d988187611d04565b90508181036060830152611dac8186611d04565b90508181036080830152611dc08185611d04565b9050611dcf60a0830184611d47565b979650505050505050565b60006060820190508181036000830152611df48186611d04565b90508181036020830152611e088185611d04565b9050611e176040830184611d47565b949350505050565b611e2881611d3d565b8114611e3357600080fd5b50565b600081359050611e4581611e1f565b92915050565b600060208284031215611e6157611e60611b1c565b5b6000611e6f84828501611e36565b91505092915050565b60008115159050919050565b611e8d81611e78565b82525050565b600060a0820190508181036000830152611ead8188611d04565b9050611ebc6020830187611d47565b8181036040830152611ece8186611d04565b90508181036060830152611ee28185611d04565b9050611ef16080830184611e84565b9695505050505050565b600080600080600060a08688031215611f1757611f16611b1c565b5b600086013567ffffffffffffffff811115611f3557611f34611b21565b5b611f4188828901611c3e565b955050602086013567ffffffffffffffff811115611f6257611f61611b21565b5b611f6e88828901611c3e565b945050604086013567ffffffffffffffff811115611f8f57611f8e611b21565b5b611f9b88828901611c3e565b935050606086013567ffffffffffffffff811115611fbc57611fbb611b21565b5b611fc888828901611c3e565b925050608086013567ffffffffffffffff811115611fe957611fe8611b21565b5b611ff588828901611c3e565b9150509295509295909350565b6000806040838503121561201957612018611b1c565b5b600083013567ffffffffffffffff81111561203757612036611b21565b5b61204385828601611c3e565b925050602083013567ffffffffffffffff81111561206457612063611b21565b5b61207085828601611c3e565b9150509250929050565b7f4e487b7100000000000000000000000000000000000000000000000000000000600052602260045260246000fd5b600060028204905060018216806120c157607f821691505b602082108114156120d5576120d461207a565b5b50919050565b600081905092915050565b60006120f182611cb5565b6120fb81856120db565b935061210b818560208601611cd1565b80840191505092915050565b600061212382846120e6565b91508190509291505056fea2646970667358221220121683108bb552733e9d44f438f6f4718b04da18539a8d7cc7b1f6c43405037264736f6c63430008090033",
  "immutableReferences": {},
  "source": "// SPDX-License-Identifier: GPL-3.0\r\npragma solidity >= 0.8.0;\r\n\r\ncontract Supplychain{\r\nstring product_id;\r\nstring worker_id;\r\n\r\nstruct Product{\r\n    string id;\r\n    string name;\r\n    string price;\r\n    string description;\r\n    string data;\r\n    uint256 timestamp;\r\n}\r\nstruct Status{\r\n    string location;\r\n    uint256 timestamp;\r\n    string data;\r\n    string worker_id;\r\n    bool flasg;\r\n\r\n}\r\n\r\nstruct Worker{\r\n    string name;\r\n    string id;\r\n    uint256 timestamp;\r\n}\r\n\r\nProduct[] public products_list;\r\nProduct public productInfo;\r\nStatus[] public productStatus;\r\nStatus public statusInfo;\r\nWorker[] public workers_list;\r\nWorker public workerInfo;\r\nmapping(string => Product) public product_Status;\r\nmapping (string => Product) public products;\r\nmapping (string => Worker) public workers;\r\n\r\n\r\nfunction setWorker(string memory name,string memory id) public  payable{\r\n    workerInfo=Worker(name,id,block.timestamp);\r\n    workers[id]=workerInfo;\r\n    workers_list.push(workerInfo);\r\n\r\n}\r\n\r\nfunction AddProduct(string memory  id,\r\n    string memory name,\r\n    string memory price,\r\n    string memory description,\r\n    string memory data) public payable\r\n{\r\n    productInfo=Product(id,name,price,description,data,block.timestamp);\r\n    products[id]=(productInfo);\r\n    products_list.push(productInfo);\r\n    }\r\n\r\n}",
  "sourcePath": "C:\\Users\\91831\\Desktop\\IOTHINC\\SupplyChain\\SupplychainQCEvent\\contracts\\Supply_chain.sol",
  "compiler": {
    "name": "solc",
    "version": "0.8.9+commit.e5eed63a.Emscripten.clang"
  },
  "schemaVersion": "3.4.3",
  "updatedAt": "2022-02-20T06:13:22.806Z",
  "devdoc": {
    "kind": "dev",
    "methods": {},
    "version": 1
  },
  "userdoc": {
    "kind": "user",
    "methods": {},
    "version": 1
  }
}